:020000040800F2
:1000000090080020C5010008CF3C0008C136000858
:10001000CD3C0008251D00089D40000800000000A0
:10002000000000000000000000000000B93D0008D2
:10003000271D000800000000D13C0008BB3D00085F
:10004000DF010008DF010008DF010008DF01000810
:10005000DF010008DF010008DF010008DF01000800
:10006000DF010008DF010008DF010008DF010008F0
:10007000DF010008DF010008DF010008DF010008E0
:10008000DF010008DF010008DF010008DF010008D0
:10009000DF010008DF010008DF010008DF010008C0
:1000A000DF010008DF010008DF010008DF010008B0
:1000B000DF010008DF010008DF010008DF010008A0
:1000C000DF010008DF010008DF010008DF01000890
:1000D000DF0100088540000891400008DF010008AA
:1000E000471D0008DF010008DF01000800F002F8EA
:1000F00000F058F80AA090E8000C82448344AAF16A
:100100000107DA4501D100F04DF8AFF2090EBAE867
:100110000F0013F0010F18BFFB1A43F0010318473B
:100120002847000048470000103A24BF78C878C12B
:10013000FAD8520724BF30C830C144BF04680C60ED
:10014000704700000023002400250026103A28BF35
:1001500078C1FBD8520728BF30C148BF0B60704739
:10016000662904F00083642900F08280752900F07C
:100170007F80732900F00A84002070471FB59DE836
:10018000030000F07BFF00F017FC040000200021BA
:1001900004F028F8E06000F023FD1FBD10B500F06A
:1001A00088FD10BD00F0F0FD1146FFF7E7FF03F0FA
:1001B000ADFF00F0F5FE03B4FFF7F0FF03BC01F064
:1001C000EFF800000948804709480047FEE7FEE7CE
:1001D000FEE7FEE7FEE7FEE7FEE7FEE7FEE7FEE7F7
:1001E00004480549054A064B70470000373E0008A1
:1001F000ED000008900200209008002090040020EC
:10020000900400200FB4044910B503AA029800F02E
:10021000C1FB10BC5DF814FB8801002070B50C46D2
:100220000546012A05D02878800600D5EA69002312
:1002300002E0012305E05B1C934202D2E05C00284F
:10024000F9D1A869E618C01AA861286A184428627A
:100250002846AFF3008004E0D5E9012114F8010B32
:100260009047B442F8D32846AFF3008070BD000039
:100270002DE9F0410646002410687529314616A57F
:1002800010D0AFF30080002802DA404213A507E047
:1002900031688A0701D512A502E0490704D511A5E6
:1002A000012401E0AFF3008000210A2206F12407B7
:1002B00009E0B0FBF2FCB0FBF2F302FB1C003030B3
:1002C00078541846491C0028F3D123462A46304664
:1002D000BDE8F04100F0E2B8000000002D00000091
:1002E0002B000000200000002DE9F0474FF0000A2D
:1002F00089460446C0F820A02046E16888470028C7
:1003000076D0252806D0D4E901219047206A401CE8
:100310002062F1E7E168204600268847C4F81CA067
:1003200005460027C4F818A02A2D09D0284603F056
:10033000DAFE38B304EB8708303DC8F8185019E0EE
:1003400059F8041B204604EB87029161E168884755
:10035000012F054618D1E069002820DA26F0200692
:100360001DE0D8F8180000EB800005EB40003038A5
:10037000C8F818002046E1688847054603F0B3FE38
:100380000028EED1012F0AD02E2D08D12046E16899
:1003900088477F1C0546022F46F02006C4DBA06973
:1003A000002803DA404246F00106A061F00701D0C0
:1003B00026F010066C2D0AD0682D08D04C2D39D0AF
:1003C0006A2D35D0742D35D07A2D33D016E0E16802
:1003D0002F4620468847B84205460AD16C2F27D0C1
:1003E0004FF48060E168064320468847054605E0F3
:1003F00027E06C2F1AD04FF4807006430DB3A5F19F
:100400004100192802D8203546F400664A4629469C
:10041000204626604E46FFF7A3FE80B101280BD090
:10042000F61D26F0070000F1080965E74020E4E723
:100430008020D7E70020D5E706F104095CE72846CD
:1004400061E7206ABDE8F0874FF0000200B513466F
:1004500094469646203922BFA0E80C50A0E80C50E4
:10046000B1F12001BFF4F7AF090728BFA0E80C5095
:1004700048BF0CC05DF804EB890028BF40F8042B8E
:1004800008BF704748BF20F8022B11F0804F18BFFB
:1004900000F8012B70477047704770472DE9F0470F
:1004A0000D4699469246044600F1240801688806E4
:1004B00004D5E06921F01001216000E00120A8428C
:1004C00001DD471B00E00027A1697A1902EB090052
:1004D000081AA0612078C00602D42046AFF300803D
:1004E000002608E0D4E901211AF806009047206AA6
:1004F000401C761C20624E45F4DB2078C0060AD5ED
:100500002046AFF3008006E0D4E901213020904777
:10051000206A401C2062381EA7F10107F4DC07E0C6
:10052000D4E9012118F805009047206A401C206298
:10053000281EA5F10105F3DC2046AFF300802078EA
:10054000000602D50220BDE8F0870120FBE77047D6
:100550002DE9FF4F0C461E464FF0FF378BB0D2E916
:100560000001DDF860800A908A46C1F30A5505B99A
:100570003D46002108464FF00000BAF1000F00F49C
:10058000400005DA00EB80004FF4400101EA500022
:100590004FEA9059B9F1010F00DDB9460A9850EAC7
:1005A0004A000ED044F61050A5F2FF3545432F14F3
:1005B000B8F1000F1ED07542291E1EDDC9F10002E0
:1005C0001CE0B8F1010F4FF0000001D0302103E032
:1005D000F24305E02154401CB042FBDB30460022D0
:1005E000002121540B99C1F80880C1E900200FB007
:1005F000BDE8F08FBD1B6D1CDEE74A4600DA69429C
:1006000006A800F07BFA06AB93E8070003AB83E88B
:10061000070050460A9900F05FFF8DE80700A0F53B
:1006200000501F3800900398002D09DD42F21F0191
:100630004A46084403A90390684601F0BEF908E061
:10064000A0F500504A461F3803A90390684601F000
:10065000C8F98DE807000004000C03D04FF0FF300C
:10066000410800E01046B8F1000F03D000220092CC
:1006700015461EE0751E05D400F0A2F93032625511
:100680006D1EF9D5B3460122084302D000227F1C1B
:1006900004E02078302801D100227F1E002A09972B
:1006A00086D01DE0112D07DA00F08AF9303262554C
:1006B0006D1C50EA0102F5D1084302D00098C8B180
:1006C0000EE00021681E05E0235C625C6354225446
:1006D000401E491C8142F7DBAB46A81B401E099017
:1006E000002004F80B000B98099AC0F80880C0E9B4
:1006F000002B7CE711264FF0000859E72DE9F04F59
:1007000088460446D21D22F0070191B0D1E90001CC
:10071000CDE90A0103F0C3FC02460B98C00F01D0DB
:100720002D2007E02068810701D52B2002E0202141
:1007300001EAC000032A099001D0072A05DB03461D
:100740004146204600F09AF90BE12078800601D559
:10075000E06900E00620B8F1650F814606D0B8F1E7
:10076000660F18D0B8F1670F70D131E00020B9F1F1
:10077000110F009001DB112301E009F101030AAA26
:1007800001A90CA8FFF7E4FEDDE90C70002609F1D1
:100790000105834647E001204B4600904FF000479B
:1007A0000AAA01A90CA8FFF7D3FEDDE90DB00C9948
:1007B0005D46002610B909F101000D18B9EB0500DE
:1007C00003D4C0F1FF3609F10105A5EB09002BE0C8
:1007D000B9F1010F01DA4FF001090020B9F1110F51
:1007E0000090484601DD112300E003460AAA01A952
:1007F0000CA8FFF7ADFEDDE90C704D4600268346E0
:10080000207800070AD4AB4500DA5D4601A8012D27
:1008100004DD411911F8011C302907D04F4502DAD7
:1008200017F1040F04DA012082460FE06D1EEEE797
:10083000002F02DCED1B3E4403E0781CA84200DDE3
:100840007D1CB81B00F1010A4FF00047207800071B
:1008500003D4AA4501DB4FF0FF3A0021B7F1004F66
:100860000DF143088DF8431024D002202B23002FD4
:1008700001DA7F422D230A21021EA0F1010000DCD3
:100880005FB197FBF1FC97FBF1F201FB1C7C174673
:100890000CF1300C08F801CDEEE7A8F1010003706F
:1008A0002188090501D5452100E06521A0F1010855
:1008B00000F8011C09980FA9A1EB0807FF1D00B162
:1008C0000120411901EBEA70A1693844081A401E61
:1008D000A0612078C00602D42046AFF300800998BA
:1008E00028B1D4E901219047206A401C2062207879
:1008F000C00622D52046AFF300801EE0002E04DBA8
:10090000B34502DD01A8805D00E03020D4E901217B
:100910009047206A401C2062761CAAF101005FEA21
:10092000000A0AD100F048F8C0680168405CD4E9C8
:1009300001219047206A401C2062281EA5F1010574
:10094000DCDC07E0D4E9012118F8010B9047206AAC
:10095000401C2062381EA7F10107F3DC2046AFF3EC
:100960000080032011B043E610B5436913B1AFF323
:10097000008001E0FFF752FC012010BD127800F169
:1009800024010A7000224A700122EDE711684FF03D
:10099000FF32E9E7074B70B50D467B4400F05BF88A
:1009A0000446284600F018F910B14FF0FF3070BD32
:1009B000204670BD573700000048704750020020A5
:1009C00030B5B0F10A024FEA900E71F100034EEA21
:1009D000817EB0EB0E0061EB91014FEA101E4EEAF2
:1009E000017E10EB0E0041EB11114FEA102E4EEA82
:1009F000016E10EB0E0041EB11214FEA104E4EEA52
:100A0000014E10EB0E0041EB1141401841F1000185
:100A10004FEAD00040EA41704FEAD10110EB800567
:100A20004FEA810444EA907444EB01046D1944EBED
:100A30000404521BA3414FF0000348BF0A3200D503
:100A400030BD401C41F1000130BD000001694A1C6D
:100A500002610878704700B58FB0CDE901310021FF
:100A6000059105497944CDE9031011466846FFF721
:100A70003BFC0FB000BD0000E5FFFFFF2DE9F0419A
:100A80001F46044603260168072A01F4006004DBC0
:100A900008B116A505E016A503E008B115A500E00C
:100AA00015A521F010002060A069C01EA0610FB143
:100AB000401EA0612046AFF300804FB1D4E9012170
:100AC00038469047206A401C2062C01C206206E025
:100AD000206AFAE7D4E9012115F8010B9047761E48
:100AE000F8D22046AFF30080BDE8F0814E414E00C1
:100AF0006E616E00494E4600696E66002DE9F04752
:100B0000814616468AB0334878440DC88DE80D00FA
:100B100030487844801C03AC0DC884E80D0041F6D1
:100B20009B300844372190FBF1F290FBF1F5A5F1E1
:100B3000800501FB12041B3C02D56442012000E049
:100B40000020DFF890A080460027FA44AAF1BE0AF0
:100B50000DE0E00709D03246684607EB47010AEB93
:100B6000810100F03EFF8DE8070064107F1C002C1F
:100B7000EFD1184F7F44AC3F18E0E80714D007EBE3
:100B800004100DF1180A90E80E008AE80E00C06803
:100B9000F04201D198190890324606A903A800F046
:100BA00020FF03AB83E807006D10641C002DE4D127
:100BB00032466946B8F1000F03A802D000F0FDFEEE
:100BC00001E000F00EFFC9E90001C9F808200AB0F1
:100BD000BDE8F087183D0000007B00F08000704702
:100BE00010B542485421FFF72FFC41485421FFF72C
:100BF0002BFC40485421FFF727FC3F493B483C4A27
:100C00003F4B08603D490A603A491960531C03652F
:100C1000481C1065012008653B48344A39A17844D6
:100C200000F022F920B9384878440A3800F0C1F9B8
:100C300037482F4A35A1784400F016F920B93448D6
:100C400078440A3800F0B5F932482A4A2FA178448E
:100C500000F00AF920B92F4878440A3800F0A9F9C1
:100C600040232248DC000021224600F0D9F820B1C0
:100C700025487844543800F09CF91D48224640230A
:100C8000002100F0CDF820B121487844543800F01C
:100C900090F9184822461023002100F0C1F80028DE
:100CA00006D01C487844BDE81040563800F081B9A1
:100CB00010BD104870B5006D20F001040B4800F025
:100CC00049F90B4800F046F90A4800F043F909E0F9
:100CD000206D20F00105204600F03CF9204600F090
:100CE00078F82C46002CF3D170BD000034010020B0
:100CF00088010020DC0100201400002018000020E2
:100D00001C000020720000001A3C00007700000068
:100D1000063C0000F23B00000EB5CDE9000100F0FA
:100D20001FFB029069460120ABBE0EBD08B56946A7
:100D300000900220ABBE08BD1FB58DE807006946D4
:100D40000520ABBE04B010BD1FB58DE80F0069468D
:100D50000620ABBEF6E708B5694600900920ABBE99
:100D600008BD1CB5CDE9000169460A20ABBE1CBD1B
:100D7000704708B5694600900C20ABBE08BD000066
:100D800000487047300200207546FFF7F9FFAE4675
:100D900005006946534620F00700854618B020B587
:100DA000FFF71EFABDE820404FF000064FF00007A5
:100DB0004FF000084FF0000B21F00701AC46ACE803
:100DC000C009ACE8C009ACE8C009ACE8C0098D4670
:100DD000704770B50446051F00F034F90068002C18
:100DE00014BF446870BD002C18BFAC423CBF204605
:100DF0006468F8D301680A18AA4218BF456003D195
:100E00002A6805461144016028684119A1421CBFA7
:100E10006C6070BD6168696021680844286070BDBD
:100E200070B5C468A50713D0650211D4B2F5807FF0
:100E300009D0B2F5007F06D0B2F5806F08D101234A
:100E400000F1240106E05D1E6FF07F46B54201D33C
:100E5000012070BD0161C361416024F470611143E0
:100E6000C160002070BD00002DE9F0410C4607462E
:100E70001646104600F06EF82078611C61280AD0F2
:100E8000722802D077283CD102E00125002405E039
:100E90000225042402E0082448F2020511F8010B9F
:100EA0002B2806D0622809D011F8010C74280AD02A
:100EB0000BE045F0030544F00204EFE745F00405BC
:100EC00044F00104EAE744F0100438462146FFF7F5
:100ED00023FF411C15D00021316171604FF4007176
:100EE000F560F1617061200704D5304602220021CF
:100EF00000F022F9306D40F0010030653046BDE869
:100F0000F0810020FBE72DE9F0410D460646104C2C
:100F1000206DC10704D0410804D020F00104F7E798
:100F200022460EE0542000F0D8F807000ED0206DC5
:100F300047F001010843542120653846FFF784FA41
:100F40003A4629463046BDE8F0418DE70020D6E715
:100F5000340100202DE9F04704464FF000094FF01E
:100F6000FF37C568D4E90486A80707D0204600F0FB
:100F700093F93046FFF7DAFE002802DA3846BDE87A
:100F8000F087280502D54046FFF723FF4C21204675
:100F9000FFF75AFA206D20F0010020654846EEE781
:100FA00010B50446AFF300802046BDE81040FFF7BF
:100FB00002B910B500F0BAF9BDE8104000F0B0B9C0
:100FC0004FF0013C50F8042B51F8043B9A4221D1D8
:100FD000A2EB0C03934313EACC1317D150F8042B64
:100FE00051F8043B9A4215D1A2EB0C03934313EA48
:100FF000CC130BD150F8042B51F8043B9A4209D181
:10100000A2EB0C03934313EACC13DBD04FF00000A8
:10101000704700BFD01A01BAB1FA81F101F018018E
:1010200022FA01F0CB40C1F12001DBB2C0B2C01AFC
:101030002CFA01F3D11A914311EAC311E6D170479A
:101040007047000000487047380200207047704722
:101050007047704738B504460A4600206946AFF32A
:101060000080002808BF38BD02460099204600F0E5
:10107000A4F9012038BD012000F0F3B9F8B5AFF3B1
:101080000080054600200C46102000BF0646A81927
:10109000A0420DD9324669460020AFF30080070018
:1010A00008BF00F0DEF90098A04218BF0546C41939
:1010B000FFF7C8FF05600746F01D20F0070046193E
:1010C000284600F073F9B44208BFF8BDA21B3146B0
:1010D0003868BDE8F84000F070B970B50646FFF713
:1010E000B1FF056806F10B0020F00704B4429CBF75
:1010F000002070BD2B466A68BAB11068A04210D3B8
:1011000004F1080188423CBF5068586007D3516819
:10111000101941601168091B016058601460101DAE
:1011200070BD13465268002AE7D121462846FFF7D2
:1011300091FF0028DED170BD2DE9F041044616462E
:101140000D464769007B80072ED03846FFF703FE27
:1011500050BB3EB3012E02D0022E25D104E0204622
:1011600000F045F905441DE03846FFF702FEE1684E
:10117000002841F01001E16005DA204600F058F83F
:101180000120BDE8F081C9030BD56268E16A914294
:1011900000D81146A26911442269891A814200DDF2
:1011A00008460544002D01DA0220EAE7E16A60689A
:1011B000E268814206D29103E06203D522F4003155
:1011C00041F01002A6690027AE4213DCE16A8142B9
:1011D00001D90B4600E0034603EB060C2369ACEB98
:1011E000030CAC4506DD814201D98C4600E0844603
:1011F0009C4505D1A760276042F02000A5620DE064
:10120000AD1BE669AE1B8142A66000D90846C01A34
:10121000281A20605819606022F020000349084015
:10122000E060002084F84870ABE70000BFCFD7FF34
:10123000C16821F4001141F08001C160002181608A
:10124000016070472DE9F047814614460E464FF085
:10125000FF383248D5685769054209D03846A16938
:10126000FFF77FFD002811DB2C48C0430540E560F7
:101270002B46324649463846FFF75EFDA16920F00D
:101280000042B21A11440028A16103D02046FFF7A2
:10129000CFFF4046BDE8F08770B504460569C06AD7
:1012A0006168884200D80846E16821F42011E160B5
:1012B000C90312D5A84208D02246411B2846FFF791
:1012C000C1FF10B14FF0FF3070BD0020E562C4E9EE
:1012D0000150E06820F48030E060002070BD10B55F
:1012E0000446C06820F02000E060A16AA06988423E
:1012F0000DD02046FFF7D0FFE06820F4405040F0CA
:101300001000E060A06AA0612069E062606044F2C1
:101310004001E0688843E06010BD0000100002005A
:10132000002801D000F03CB87047000010B501461D
:1013300002A000F07DF8012010BD00005349475283
:10134000545245443A2052656469726563743A2088
:1013500063616E2774206F70656E3A200000000094
:1013600010B5431C02E010F8011B71B18107FAD1DE
:101370004FF0013202C88C1A8C4314EAC211F9D022
:10138000C01A0A0603D0C01E10BDC01A10BD0A0440
:1013900001D0801E10BD0902FCD0401E10BD00000F
:1013A00001491820ABBEFEE72600020000210160C3
:1013B000C0E90110704710207047034640688C4612
:1013C000002818BF88423CBF03464068F8D318681D
:1013D0001844884207D00CF1030020F00700001DDC
:1013E000411A521A0146081D0A60FFF7F2BC10B5F7
:1013F0000146C268900703D0900607D5886A0AE0C4
:1014000000F03EF801210160881E10BD8B6948681C
:1014100018440B69C01A91F848301BB191F8491073
:10142000401A10BD1103FCD50028FADD401E10BD86
:1014300070B505460C460A2000E06D1C00F018F857
:1014400035B128780028F8D102E0641C00F010F8CB
:1014500014B120780028F8D1BDE870400A2000F0CF
:1014600007B810B500F010F8BDE81040FFF758BFFE
:1014700008B569468DF800000320ABBE08BD00002A
:10148000004870473002002010B5012805D0002127
:1014900003A0FFF7CDFF012010BD09A1F8E7000070
:1014A00053494752544D454D3A204F7574206F664D
:1014B0002068656170206D656D6F727900000000B5
:1014C0003A2048656170206D656D6F727920636F99
:1014D00072727570746564005FEA400C08BF91F029
:1014E000000F4FEA8C234FEAC12243EA51514FEAE1
:1014F0001C5018BF00F5F0404FEA300018BF41F013
:1015000000415FEA6C5C00F02980BCF1FF3F08BF3E
:1015100040F080407047130C06BF12044FF0100CCF
:101520004FF0000C130E04BF12020CF1080C130F45
:1015300004BF12010CF1040C930F04BF92000CF1D4
:10154000020CD30F04BF52000CF1010C11464FF0F6
:101550000002A0F11F00A0EB0C00704711F0004F3B
:1015600008BF704731F000413FF4D5AF0B0C06BF08
:1015700009044FF0100C4FF0000C0B0E04BF0902D1
:101580000CF1080C0B0F04BF09010CF1040C8B0FBC
:1015900004BF89000CF1020CCB0F04BF49000CF111
:1015A000010CCCF12003A0EB0C0022FA03F302FAA9
:1015B0000CF241EA030100F10100704720F07F4C7A
:1015C00080EA030023F07F47ACEB070303F57C536D
:1015D00000F0004003F1FF032DE980494FEA154B6D
:1015E00009B44FEA144325EA0B4E24EA03480FF2EC
:1015F000042606EB132749083E785FEA320203FB14
:101600000667C7F5000707FB06F64FEA54374FEAAF
:10161000D64606F1020607FB066CCCF1005C4FEAE9
:101620001C472CEA074C07FB06F40CFB06F504EB01
:1016300015464FEA961634BF00204FF000404FEA9F
:10164000D13706FB07FC4FEA1C4C0CFB0BF7D21BF7
:1016500003FB0CF761EB07010CFB0EF7B0EB074047
:1016600072EB17420CFB08F734BFA2EB0742B2EB58
:10167000074261EB17414FEA0C444FEA910706FB22
:1016800007FC4FEA1C4C0CFB0BF7B0EBC74072EBAE
:10169000573203FB0CF734BFA2EBC742B2EBC74291
:1016A00061EB57310CFB0EF7B0EBC70072EB5772D2
:1016B0000CFB08F734BFA2EBC702B2EBC70261EB29
:1016C0005771039F4FEA816141EA921104EBCC0408
:1016D0004FEAD1374FEA826206FB07FC42EA9012DA
:1016E0004FEA80604FEA1C4C0CFB0BF7D21B03FB4C
:1016F0000CF761EB07010CFB0EF7B0EB074072EB48
:1017000017420CFB08F734BFA2EB0742B2EB0742CB
:1017100061EB17414FEA8C554FEA910704EB9C248B
:1017200006FB07FC4FEA1C4C0CFB0BF7B0EBC74069
:1017300072EB573203FB0CF734BFA2EBC742B2EB9C
:10174000C74261EB57310CFB0EF7B0EBC70072EBF1
:1017500057720CFB08F734BFA2EBC702B2EBC7020B
:1017600061EB577115EB4C254FEA816141EA92110B
:101770004FEA82624FEAD13742EA901206FB07FC39
:1017800044F100044FEA80604FEA1C4C0CFB0BF75D
:10179000D21B03FB0CF761EB07010CFB0EF7B0EB60
:1017A000074072EB17420CFB08F734BFA2EB07426D
:1017B000B2EB074261EB174115EB1C154FEA813183
:1017C00041EA92414FEA823242EA90424FEA803047
:1017D0004FEA0C7644F1000448EA03434EEA0B4812
:1017E0004FF0000EB2EB080C71EB030724BF62460A
:1017F00039464EEB0E0E4FF0000B00185241494196
:101800004BEB0B0BB2EB080C71EB03077BF1000BFE
:1018100024BF624639464EEB0E0E4FF0000B001807
:10182000524149414BEB0B0BB2EB080C71EB030738
:101830007BF1000B24BF624639464EEB0E0E51EA97
:10184000020718BF46F0010616EB0E7655F10002AE
:1018500054F1000103D5BDE88901BDE80088BDE869
:101860008901BDE80048B619524141EB0101A3F1DD
:101870000103704780807F7E7D7C7B7A79787776E4
:1018800076757473727171706F6E6E6D6C6C6B6A5D
:101890006A696868676666656464636362616160FB
:1018A000605F5F5E5E5D5D5C5C5B5B5A5A59595878
:1018B00058575756565555555454535352525251E2
:1018C000515050504F4F4F4E4E4D4D4D4C4C4C4B38
:1018D0004B4B4A4A4A49494948484847474747467F
:1018E00046464545454444444443434343424242BB
:1018F00042414141002B26D4770021D01CB54FEA4C
:10190000370703B44FF010004FF010014FF0000004
:101910000FBCBDE810400BF1010BBBF1010F08BF7C
:101920005FEA170722BF12F1010211F101014FF026
:10193000004143F1000300F0004043EA000070471B
:10194000F9D35708DAE746EA064613F1400F4FEAA3
:1019500016461FDD13F1200FDFBF16430A46002194
:1019600020335B42C8D0C3F1200746EA064602FA9C
:1019700007F74FEA164646EA0706C3F1200722FAA0
:1019800003F201FA07F721FA03F14FF0000342EAEC
:101990000702B1E746EA020646EA06464FEA16465D
:1019A00046EA0106BCBF46EA0646360C4FF0000385
:1019B0004FF000024FF000019EE72DE9C04893462A
:1019C00030B491E8380007C831EA400C48BF34EA27
:1019D000430C03D5FFF7F2FDFFF78CFFF0BCBDE829
:1019E00000882DE9C048934630B491E8380007C814
:1019F00010F0804F08BF13F0804F03D100F005F8BE
:101A0000FFF778FFF0BCBDE8008820F07F4780EA50
:101A1000030023F07F4C07EB0C03A3F57C5300F08D
:101A20000040A3F1FE0392F0000F00F0B38095F0A8
:101A3000000F00F077802DE901494FEA11404FEA8D
:101A4000144621EA004800FB06FC24EA064708FB8E
:101A500006F607FB08F800FB07F718EB06484CEB07
:101A6000164C4FEA124B18EB07484FEA15464CEB61
:101A7000174022EA0B4E0BFB06FC25EA06470EFB3D
:101A800006F607FB0EFE0BFB07F71EEB064E4CEBB4
:101A9000164C4FF000061EEB074E4CEB174B18EBA5
:101AA0000B0840F1000018EB0E0B58EB000840F15A
:101AB00000008F1A4FF000013CBFC943661B14BFE2
:101AC000B5EB040C00213CBFC943F61B4FEA174499
:101AD0004EEA8E0E27EA04454FEA1C4704FB0762D4
:101AE0002CEA074C05FB07F70CFB05F604FB0CFC86
:101AF00016EB074642EB174216EB0C4642EB1C4234
:101B00001BEB060658EB0202414146EA9E0601D550
:101B1000BDE80189B619524141EB0101A3F101036E
:101B2000BDE801894FEA14454FEA114724EA05460A
:101B300021EA074C05FB07F406FB07F70CFB06F14F
:101B400005FB0CFC11EB074144EB17444FEA12472D
:101B500011EB0C4144EB1C4422EA074C05FB07F255
:101B600006FB07F70CFB06F605FB0CFC16EB07461D
:101B700042EB174216EB0C4642EB1C456A1854F137
:101B8000000148BF7047B619524141EB0101A3F172
:101B90000103704795F0000F37D04FEA11424FEA2A
:101BA000144721EA024624EA074C02FB07F106FB30
:101BB00007F70CFB06F402FB0CFC14EB074441EBAB
:101BC00017414FEA154714EB0C4441EB1C4125EA41
:101BD000074C02FB07F506FB07F70CFB06F602FBBA
:101BE0000CFC16EB074645EB174516EB0C4645EB90
:101BF0001C42121951F1000148BF7047B6195241F9
:101C000041EB0101A3F1010370474FEA14454FEA8C
:101C1000114724EA054621EA074C05FB07F106FBBC
:101C200007F70CFB06F24FF0000605FB0CFC12EB6D
:101C3000074241EB174112EB0C4251EB1C4148BFEC
:101C40007047921841EB0101A3F1010370470000B6
:101C500070B5044600688168C943C90717D1816817
:101C600021F00101816000F06DFC05460AE000BF33
:101C700000F068FC401B022804D920688068C0433B
:101C8000C00706D020688068C043C007F0D000209D
:101C900070BDA06A40F01000A062E06A40F0010050
:101CA000E062012070BD0000F8B5002604460096F1
:101CB00000688168C943C9072DD0816841F00101DE
:101CC0008160164816490068B0FBF1F000E0401E44
:101CD00000900028FBD100F035FC054616E000BF5F
:101CE00000F030FC401B022810D920688068C043F7
:101CF000C0070BD0A06A40F01000A062E06A40F07C
:101D00000100E06284F824600120F8BD206880684A
:101D1000C043C007E4D10020F8BD00000C00002043
:101D200040420F00FEE7704710B54FF48051034862
:101D300000F0F6FB002800D0012010BD000C01408F
:101D4000282000F00DBF4FF4805000F0EDBA72B6BD
:101D5000FEE70000F8B50024009490F82420254602
:101D6000012A12D0012280F824204A681F23072A62
:101D70000DD20668776B521E02EB820293409F439E
:101D80000B6893401F43776319E00220F8BD066893
:101D90000D2A0AD2376BD21F02EB820293409F4377
:101DA0000B6893401F43376309E0F76A0D3A02EB73
:101DB000820293409F430B6893401F43F7620A6877
:101DC000072306680A2A0AD3F7680A3A02EB420296
:101DD00093409F438B6893401F43F76008E0376947
:101DE00002EB420293409F438B6893401F4337614D
:101DF0000A68102A01D0112A20D1124B02689A4297
:101E000017D193681B0219D4936843F400039360BD
:101E10000968102912D10C490C4A0968B1FBF2F18A
:101E200001EB8101490000E0491E00910029FBD12E
:101E300004E0816A41F020018162012480F824508D
:101E40002046F8BD002401400C00002040420F0055
:101E50000068C06C704700002DE9F0414FF00007AA
:101E600004003D467ED0A06A002628B9E66284F8C8
:101E70002460204600F07EF82046FFF7E9FEA16AC4
:101E8000C90600D420B1A06A40F01000A06269E049
:101E9000A16A21F4885141F00201A1626268E169FE
:101EA000237B0A4347EA43010A43A1684FF4807742
:101EB000B94209D0012907D05FF0000194F814C09D
:101EC000BCF1010F02D00AE03946F7E7F3B1A36A8B
:101ED00043F02003A362E36A43F00103E362236853
:101EE000D3F804C02CF4694C4CEA010CC3F804C0CC
:101EF00021688B68DFF870C003EA0C0313438B6022
:101F0000A168B9420BD0012909D00CE0DFF85CC010
:101F1000A3690CEB43330B4343F40061DFE7218AF1
:101F20000D05A5F580152168CB6A23F470032B43BA
:101F3000CB62216889680E4B1940914208D1E66254
:101F4000A16A21F0020141F00101A162BDE8F08126
:101F5000A06A20F0020040F01000A062E06A40F0A9
:101F60000100E0620120F1E7FDF7E1FF00E0FFFF83
:101F7000FE0E1FFF00B585B0002100910191029176
:101F8000039100680E49884218D10E48816941F4D6
:101F900000718161816901F400710491816941F0EE
:101FA000040181618069694600F004000490022008
:101FB000009003200190044800F0C2F905B000BD74
:101FC0000024014000100240000801402DE9F843C0
:101FD00000270D460446009700F0B4FA80462068BA
:101FE0008168C90508D5A06A40F02000A06284F885
:101FF00024700120BDE8F8834168C90503D4C06A94
:1020000010F4700F2AD0022000F0EAFD3B49096865
:10201000B1FBF0F62068036939490B424FEA6101D0
:102020004FEAA1121FD1C3684FEA611C13EA0C0FDB
:1020300019D103690B4225D1C068104222D1142066
:1020400023E0681C0AD02DB100F07CFAA0EB080058
:10205000A84203D920680068800725D52068006859
:102060008007EED52DE003690B4202D1C168114211
:1020700006D0026923490A4206D1C068084203D14A
:10208000542002E0292000E0FC204643009816E09E
:10209000681C11D02DB100F055FAA0EB0800A84241
:1020A0000AD90098B04207D2A06A40F00400A062AA
:1020B00084F8247003209DE70098401C0090B042F3
:1020C000E6D321686FF012000860A06A40F4007047
:1020D000A06220688068C0F3424007280CD1207BB2
:1020E00050B9A06A20F48070A062A06AC00403D432
:1020F000A06A40F00100A06200207BE70C000020F5
:10210000244992244992240070B5044690F8240092
:1021100001280DD0012084F824002046FFF7C4FDDB
:1021200002004FF0000005D084F82400104670BD76
:10213000022070BDA16A40F20123994341F48071ED
:10214000A1621F4D23681F49AB4218D10E6816F4D7
:10215000702F14D0A66A46F48016A6620E68760523
:1021600005D5A66A26F4005646F48056A662A66AED
:10217000F6040AD5E66A26F00606E66206E0A66AD6
:1021800026F48016A6625E68E9E7E06284F824001F
:102190006FF00200186020688368C3F34243072B86
:1021A00005D1A84208D1096811F4702F04D08168C4
:1021B00041F480118160B9E7816841F4A001F9E739
:1021C000002801400424014010B590F8211000229D
:1021D000022905D00421816380F82020012010BD50
:1021E00001680B6823F00E030B6001680B6823F095
:1021F00001030B6090F84030C46B012101FA03F336
:10220000636080F8211080F82020104610BD000087
:1022100010B590F821100024022903D00421816315
:1022200001243DE001680A6822F00E020A6001689C
:102230000A6822F001020A601A4A0168914201D13B
:10224000012121E0174A1432914201D110211BE0F3
:10225000144A2832914201D1891515E0114A3C32C5
:10226000914201D189140FE00E4A5032914202D1BD
:102270004FF4803108E00B4A6432914202D14FF4AE
:10228000801101E04FF08071064A083A5160012147
:1022900080F82110002180F82010416B01B188479F
:1022A000204610BD0800024070B5044600F04AF90F
:1022B0000546601C02D004480078044400F042F94E
:1022C000401BA042FAD370BD0000002010B5B0F54D
:1022D000805F10D1FFF728FD04460748016809B167
:1022E000204688470CB105A100E006A1BDE81040DA
:1022F00006A0FDF787BF10BD100000204F50454ECF
:1023000000000000434C4F53454400005B444F4FD6
:10231000525D205374617465206368616E67656403
:102320003A2025730D0A0000044910B50A680242DC
:1023300002D00860FFF7CAFF10BD0000140401407E
:102340002DE9F84FDFF8B8910024A9F1040B2346DA
:102350000F2709F1040AABF1040EC9E00125A540DD
:102360002A40AA427DD1674ED1F804C0ACEB0608E2
:10237000B44532D014DCBCF1030F3AD009DCBCF117
:10238000000F2AD0BCF1010F1CD0BCF1020F31D1DB
:102390001DE0BCF1110F17D0BCF1120F2AD119E0CA
:1023A000B8F5881F19D006DCB8F5803F15D0B8F510
:1023B000801F1FD111E0B8F5001F0ED0B8F5041F23
:1023C00018D10AE0CB6815E0CB681B1D12E0CB6882
:1023D00008330FE0CB680C330CE08B682BB1012B7A
:1023E0004FF0080303D0456104E0042302E00561D7
:1023F00000E00023FF2A01D8064601E000F10406B0
:102400004FEA840501D9A5F12005D6F8008007FA26
:1024100005FC28EA0C0803FA05F548EA0508C6F8A1
:1024200000804D68ED0062D5374DAE6946F001067B
:10243000AE61AD6924F0030605F001050095334D4A
:1024400006EB050CDCF80850A607360F07FA06F86D
:1024500025EA0805DFF8B880404503D14FF00008B1
:1024600017E044E0DFF8AC80404502D14FF00108AE
:102470000FE0DFF8A480404502D14FF0020808E0E9
:10248000DFF89880404502D14FF0030801E04FF09B
:10249000040808FA06F848EA0508CCF808804D68F0
:1024A000D9F80060ED024D4601D5164300E0964391
:1024B0002E604D68DAF80060AD02554601D516432E
:1024C00000E096432E604D68DBF80060AD035D468A
:1024D00001D5164300E096432E604D68DEF800609B
:1024E000ED03754601D5164300E096432E60641C4B
:1024F0000D682A46E5407FF431AFBDE8F88F000053
:1025000008040140000011100010024000000140CA
:1025100000080140000C014000100140001401407F
:102520008068084000D001207047C26821EA020399
:102530000A4043EA0241016170470AB101617047F4
:102540000904FBE701488068704700000000002094
:1025500070B5040025D094F83D00002520B984F81A
:102560003C50204600F076FA242084F83D00206894
:10257000016821F0010101602068016841F4004117
:1025800001602068016821F40041016000F086FCD0
:102590004D4A6168914201D84C4900E04C4988425B
:1025A00001D2012070BD4B492368B0FBF1F15E6898
:1025B00026F03F060E435E606368934206D94FF4EF
:1025C000967359434FF47A73B1FBF3F12368491CB6
:1025D0001E6A26F03F06314319626168914210D8A5
:1025E0004900401EB0FBF1F2521CC2F30B02042A58
:1025F00001D2042022E0B0FBF1F0401CC0F30B003C
:102600001CE0A268F2B301EBC10303EB0116431E09
:10261000B3FBF6F35B1C43F480431B0549D092B334
:1026200001EBC10202EB0111401EB0FBF1F0401CB6
:10263000C0F30B0040F4804040F400402168CA69B8
:102640004CF6FF739A431043C861D4E90710014365
:102650002068026822F0C00211430160D4E903013E
:1026600001432068826848F2FF339A431143816036
:10267000D4E9050108432168CA6822F0FF0210432B
:10268000C86001E00EE016E02068016841F0010139
:1026900001602564202084F83D00256384F83E50C5
:1026A000002070BD01EB4106431EB3FBF6F35B1C3B
:1026B000B3E70120C2E701EB4101401EB0FBF1F09E
:1026C000401CC0F30B00B7E7A086010080841E0009
:1026D00000093D0040420F002DE9F84F0025DDF8CC
:1026E0002890984617468A4604460095FFF72AFF29
:1026F000064694F83D0020287AD119230122864904
:102700002046009601F0E4F80028F5D194F83C004A
:1027100001286DD0012084F83C0020680168C907B9
:1027200003D1016841F0010101602068016821F4D2
:1027300000610160222084F83D00102084F83E00F2
:1027400025646762A4F82A80608D20857348E06262
:1027500033464A465146204600F0CAFF00287CD145
:10276000208DDFF8BC81202768B1012814D0022811
:10277000206801681ED041F48061016020684169D1
:1027800080690090BBE0206841698169009101681F
:1027900041F400710160B2E02068016821F48061B9
:1027A000016072B62068416981690091016841F455
:1027B00000710AE041F40061016072B6206841696D
:1027C00081690091016821F48061016062B696E040
:1027D000032865D801280CD002284B464FF0000290
:1027E0004146204600960BD001F072F8A8BB0CE0E1
:1027F00090E032464946204601F010F968BB71E08E
:1028000001F066F848BB72B633E02068016821F435
:102810008061016072B620680069616A0870606A50
:10282000401C6062208D401E2085608D401E6085AA
:102830003C4846F2A8110068B0FBF1F0C0EBC000C4
:1028400000EB80000090401E009007D02068406997
:10285000C04340070DD50098F5E727E044F8305F06
:102860006773A573206940F02000206162B625736C
:102870001CE02068016841F4007101602068006973
:10288000616A0870606A401C6062218D491E218562
:10289000618D491E618562B621680969017025E074
:1028A00032464946204601F0B9F810B10120BDE892
:1028B000F88F20680069616A0870606A401C606275
:1028C000208D401E81B22185608D401E608520686C
:1028D0004269D243520712D4032903D1016821F47B
:1028E0008061016020680069616A0870606A401C4C
:1028F0006062208D401E2085608D401E6085208D89
:1029000000287FF465AF84F83D7084F83E5084F869
:102910003C50CCE70220CAE7020010000000FFFF95
:10292000040001000C0000202DE9F84F1F469046DE
:102930008A460446DDF82890FFF704FE054694F821
:102940003D0020287FD119230122404920460095CF
:1029500000F0BEFF002876D194F83C00012872D028
:10296000012084F83C0020680168C90703D1016890
:1029700041F0010101602068016821F400610160FB
:10298000212084F83D00102084F83E0000262664B3
:10299000C4F824806785608D20852D48E0622B4631
:1029A0004A465146204600F019FF90B92068416917
:1029B0008069009036E02A464946204601F066F8D4
:1029C00050B1206C042804D12068016841F40071E2
:1029D00001600120BDE8F88F606A21680078086115
:1029E000606A401C6062618D491E6185218D491EAF
:1029F00089B2218522685369DB435B070BD451B14F
:102A000000781061606A401C6062608D401E6085C5
:102A1000208D401E20852A464946204600F02CFF86
:102A20000028CED1208D0028C5D154F83D0B016877
:102A300041F400710160202004F81E09E6776677F2
:102A40000020C7E7FFE70220C4E7000002001000F3
:102A50000000FFFF10B586B00021009101910291A6
:102A6000039100680F4988421AD10F4CA06940F0C9
:102A70000800A061A069694600F008000490C02029
:102A8000009012200190032003900848FFF758FCA3
:102A9000E06940F40010E061E06900F40010049087
:102AA00006B010BD0054004000100240000C014070
:102AB000024881680278114481607047000000205C
:102AC000074810B5016841F010010160032000F0D3
:102AD00075F80F2000F006F800F024F8002010BD73
:102AE0000020024070B50D4D04464FF47A712878ED
:102AF000B1FBF0F00A490968B1FBF0F000F0A4FB6B
:102B000048B9102C07D200222146501E00F036F89A
:102B100000206C6070BD012070BD0000000000202E
:102B20000C0000200C4808B5816941F00101816169
:102B3000816901F001010091C16941F08051C161D9
:102B4000C06900F0805000900448416821F0E061C5
:102B500041F00071416008BD0010024000000140DA
:102B6000002809DB00F01F0201219140400980008C
:102B700000F1E020C0F8001170470000F0B40E4BE7
:102B80001B680C46C3F30223C3F10705042D00D9CB
:102B90000425191D072901D2002300E0DB1E0126B0
:102BA00006FA05F1491E214099409E40761E1640C6
:102BB0003143F0BC01F087BA0CED00E0064900F0AB
:102BC000070208684FF6FF03184040EA0220034A54
:102BD00010430860704700000CED00E00000FA05AB
:102BE00010B501460020234C012922D0022939D0FA
:102BF00010291DD161682268D20119D51E48C1F380
:102C00008342C903805C0AD561681B4AC1F3404115
:102C1000921E515C194AB2FBF1F1484301E0184998
:102C200048436168490203D440000321B0FBF1F03E
:102C300010BD226AC2F30121012903D1920701D5F7
:102C4000C80310BD022905D1626A920702D549F670
:102C5000404010BD0329FCD121688903F9D54FF20A
:102C6000244010BD00F02AF96168C1F38131491C8C
:102C70004900DBE7001002407E47000800127A009E
:102C800000093D002DE9F84305460078354CC007A2
:102C900054D0E0690026C00008D4E06940F08050BC
:102CA000E061E069012600F0805000902E48016844
:102CB000C90512D40168804641F480710160FFF7B4
:102CC00041FC074605E000BFFFF73CFCC01B642841
:102CD00023D8D8F80000C005F6D5206A10F440705B
:102CE00021D0A98801F4407181421CD0206A1F497B
:102CF000012220F440700A6000220A602062C007AE
:102D000011D0FFF71FFC074641F2883808E000BFEA
:102D1000FFF718FCC11B414502D90320BDE8F88329
:102D2000206A8007F4D5206A696820F4407008435F
:102D300020621EB1E06920F08050E06128788007B1
:102D400005D56068A96820F4404008436060287891
:102D5000C00605D56068E96820F48000084360601B
:102D60000020DBE7001002400070004040044242B7
:102D70002DE9F0470F46050061D0434E306800F062
:102D80000700B84209D2306820F0070038433060AD
:102D9000306800F00700B84251D128683B4C8107E9
:102DA00012D5400703D5606840F4E0606060287881
:102DB000000703D5606840F4605060606068A968EF
:102DC00020F0F000084360602878C00728D06868C9
:102DD000012810D02168022810D0890700292EDA96
:102DE000616821F0030101436160FFF7ABFB80469E
:102DF00041F288390DE021688903EFE78901EDE7A9
:102E0000FFF7A0FBA0EB0801494502D90320BDE86C
:102E1000F0876068696800F00C00B0EB810FEFD1BB
:102E2000306800F00700B8420BD9306820F0070086
:102E300038433060306800F00700B84201D001200C
:102E4000E5E72878400705D56068E96820F4E06088
:102E5000084360602878000706D56068296920F477
:102E6000605040EAC100606000F038F86168084ACC
:102E7000C1F30311515CC840064908600648006868
:102E8000FFF730FE0020C2E70020024000100240A1
:102E90008E4700080C00002004000020044805496B
:102EA00000684968044AC1F30221515CC840704778
:102EB0000C000020001002409E470008044805490D
:102EC00000684968044AC1F3C221515CC840704798
:102ED0000C000020001002409E4700080E4A516876
:102EE0000E4801F00C03042B11D0082B0FD10C4815
:102EF000C1F38343C903C05C0AD55168084AC1F3D2
:102F00004041921E515C054A5043B0FBF1F07047BE
:102F100004494843704700000010024000127A0044
:102F20006C47000800093D002DE9F84F040070D0FF
:102F30002078C04DC00749D06868C0F381000128DF
:102F400007D06868C0F38100022809D16868C0030F
:102F500006D52868800339D560680028E7D035E0B9
:102F60006068B0F5803F0BD010B1B0F5A02F11D044
:102F7000286820F480302860286820F4802002E04F
:102F8000286840F480302860606890B1FFF7DAFA72
:102F900006460AE0286840F480202860F0E700BF79
:102FA000FFF7D0FA801B642873D828688003F7D510
:102FB0000CE0FFF7C7FA064605E000BFFFF7C2FACC
:102FC000801B6428F0D828688003F7D420789A4EB4
:102FD00080074FF001094FF0000839D5686810F0FC
:102FE0000C0F07D06868C0F38100022809D1686817
:102FF000C00306D42868800714D52069012808D1A9
:1030000010E02069B0B1C6F80090FFF79BFA0746C0
:1030100005E00AE1FFF796FAC01B0228C4D8286829
:103020008007F7D52868616920F0F80040EAC10000
:1030300028600DE0C6F80080FFF784FA074604E038
:10304000FFF780FAC01B022823D828688007F7D42E
:10305000207800072CD57948A169D9B1C0F8009033
:10306000FFF770FA074604E0FFF76CFAC01B02286E
:103070000FD8686A8007F7D571484FF4FA51006895
:10308000B0FBF1F0009000BF0098411E0091FAD211
:103090000EE080E0C0F80080FFF754FA074604E035
:1030A000FFF750FAC01B022875D8686A8007F7D46A
:1030B0002078400760D5E8690027C00008D4E86997
:1030C00040F08050E861E869012700F080500090EE
:1030D0005C480168C90513D40168834641F48071D6
:1030E0000160FFF72FFA824606E000BFFFF72AFAD9
:1030F000A0EB0A0064284ED8DBF80000C005F5D527
:10310000E06801280AD008B1052813D0286A20F009
:1031100001002862286A20F0040002E0286A40F0DA
:1031200001002862E06841F2883B98B1FFF70AFA93
:1031300082460BE0286A40F004002862EEE700BFF8
:10314000FFF700FAA0EB0A0159455AD8286A800710
:10315000F6D50CE0FFF7F6F9824605E0FFF7F2F945
:10316000A0EB0A0159454CD8286A8007F6D41FB154
:10317000E86920F08050E861E06988B36968C1F3CC
:103180008101022944D00228C6F8608004D0FFF7EC
:10319000D9F9044638E034E0FFF7D4F9074604E0F3
:1031A000FFF7D0F9C01B02282BD828688001F7D47C
:1031B000206AB0F5803F05D16868A16820F400302E
:1031C00008436860D4E908010843696821F4741170
:1031D00008436860C6F86090FFF7B4F9044606E05B
:1031E00025E000BFFFF7AEF9001B022809D82868C8
:1031F0008001F7D51BE000BFFFF7A4F9001B0228F0
:1032000002D90320BDE8F88F28688001F4D40EE0CD
:103210000128F7D06868226A00F48031914204D115
:10322000616A00F47010884201D00120EAE70020B2
:10323000E8E70000001002400000424280044242E1
:103240000C0000200070004010B5401EB0F1807FDF
:1032500001D3012010BD4FF0E02460610F21601701
:1032600000F031FF0020A06107202061002010BD88
:1032700070477047F8B5016804460868CA684B692A
:1032800010F00F0F4FF0000559D003F0010602F4C3
:103290009077374365D0C10705D0D10503D5616C60
:1032A00041F001016164410705D5D90703D0616C84
:1032B00041F002016164810705D5D90703D0616C33
:1032C00041F004016164010707D502F02001314398
:1032D00003D0616C41F008016164616C00293AD04F
:1032E000800604D5900602D5204600F0D4FD206863
:1032F0004069616CC0F38010090700D460B32046B8
:1033000000F0A2FD20684069400621D520681430F5
:1033100050E8001F21F0400140E80012002AF5D1DA
:10332000E06BA8B16D494163E06BFEF771FF0028C7
:1033300011D0E06B416B01B0BDE8F0400847830657
:103340000FD593060DD52046BDE8F84000F0A3BD8B
:103350002046FFF78EFFF8BD2046FFF78AFF656421
:10336000F8BD266B2023012E7CD1C6067AD5D60661
:1033700078D508684868009048694FF00206400612
:1033800040D5E16B086840680004000CE8D0A28DCD
:103390008242E5D9E085886920282DD020680C304C
:1033A00050E8001F21F4807140E80012002AF5D196
:1033B0002068143050E8001F21F0010140E800129D
:1033C000002AF5D12068143050E8001F21F0400198
:1033D00040E80012002AF5D184F8423025632068C5
:1033E0000C3050E8001F21F0100140E80012002AC4
:1033F000F5D1E06BFEF7E8FE6663A08DE18D401A23
:1034000081B22AE0A08DE18D401A81B2E08D0028C2
:10341000A6D00029A4D022680C3252E8000F20F474
:10342000907042E80007002FF5D12068143050E872
:10343000002F22F0010240E80027002FF5D184F888
:103440004230256320680C3050E8002F22F0100233
:1034500040E80023002BF5D166632046FFF708FF04
:10346000F8BDFFE705062BD5150629D594F84100D0
:103470002128F5D1A068B0F5805F01D12069B0B1F5
:10348000206A411C2162216800784860E08C401E5F
:103490000004000CE084E3D12068C16821F08001C1
:1034A000C1602068C16841F04001C160D8E7206A6E
:1034B0000088C0F308004860206A801C2062E5E7AD
:1034C0004006CDD55006CBD5CA68204622F0400232
:1034D000CA6084F8413000F0F2F8C1E7393E0008D4
:1034E00070B5040004D094F84100002510B106E046
:1034F000012070BD84F84050204600F023F82420BD
:1035000084F841002068C16821F40051C160204660
:1035100000F022FD2068016921F4904101612068DA
:10352000416921F02A0141612068C16841F40051DC
:10353000C1606564202084F8410084F8420065631E
:10354000002070BD70B586B00024009401940294F0
:1035500003942E4E03682E49022003222D4DB342C0
:1035600026D18B6943F480438B618B6903F48043DC
:1035700004938B6943F004038B618969039201F022
:10358000040104910102CDE9001069462846FEF7C6
:10359000D7FE2815CDE90004694628460294FEF7B7
:1035A000CFFE002211462520FFF7E8FA252028E06B
:1035B000194EB34227D1CB6943F40033CB61CB69B9
:1035C00003F4003304938B6943F004038B6189692E
:1035D000039201F0040104910421CDE90010694631
:1035E0002846FEF7ADFE0820CDE9000469462846CE
:1035F0000294FEF7A5FE002211462620FFF7BEFA30
:103600002620FFF7ADFA06B070BD0000003801407B
:1036100000100240000801400044004070472DE9BE
:10362000F843044690F84100984616460D46202877
:1036300002D00220BDE8F88385B17EB1002060642D
:10364000212084F84100FEF77DFFA6848146E684B0
:10365000A0682027B0F5805F02D003E00120E9E7F1
:10366000206910B12E4600250EE000260CE08021D6
:10367000204600F0CDFCA8B9C6B116F8010B2168B0
:103680004860E08C401EE084E08C4B464FF0000226
:10369000CDF800800028EAD14FF04001204600F02C
:1036A000B7FC40B184F841700320C3E735F8020B42
:1036B000C0F30800E3E784F841700020BAE77047E0
:1036C000FEE701684A69D24352050FD46FF4806265
:1036D0004A61002140F8301F202242738173026941
:1036E00042F004020261017301207047002070471C
:1036F0002DE9F84F0446C06A1E4693460D462168E0
:103700000A6842F480620A60082807D0012805D0C0
:1037100010F5803F02D0206B112804D12068016889
:1037200041F4807101604FF001195B460022494667
:103730002046009600F0CCF84FF4007840B12068A5
:103740000068C00501D5C4F840800320BDE8F88FAB
:103750002069DFF884A0B0F5804F0FD006202168E3
:1037600000EAD51747F0F000086133465A460AF1DF
:103770000601204600F0F4F858BB03E0E8B240F040
:1037800001001CE02168E8B2086133465A46514600
:10379000204600F0E5F8E0B92068416981690091B0
:1037A000016841F4807101605B4600224946204671
:1037B000009600F08DF80028C1D147F0F100216893
:1037C000086133465A465146204600F0C9F80028A1
:1037D000BCD00120BAE7000002000100F8B50446A1
:1037E000C06A1E460D461746082807D0012805D096
:1037F00010F5803F02D0206B122804D120680168A8
:1038000041F480710160134600224FF001112046FF
:10381000009600F05DF840B120680068C00502D550
:103820004FF4007020640320F8BD2069B0F5804F8C
:103830000ED00620216800EAD51040F0F0000861A3
:1038400033463A460B49204600F08AF878B902E040
:1038500005F0FE0000E0E8B2216808610549334642
:103860003A46891F204600F07BF80028DCD0012072
:10387000F8BD00000800010070B516460D4604466C
:103880001EE02046FFF71DFF08B1012070BD681C37
:1038900016D0FEF757FE801BA84200D885B92068D5
:1038A0004069C04340070BD5002044F8300F202169
:1038B0006173A073216941F0200121612073E4E765
:1038C00020684069C0434007DBD4002070BD000081
:1038D0002DE9F047984617460D460446C1F30746C2
:1038E000DDF820902AE000BFB8F1FF3F26D0FEF7B8
:1038F00029FEA0EB0901414502D8B8F1000F1DD106
:103900002068012E16D0806925EA00000004000C12
:1039100012D00020B84211D1002044F8300F2021ED
:103920006173A073216941F020012161207301209E
:10393000BDE8F0874069E7E70120EBE72068012E4A
:103940000AD0806925EA00000004000C06D000209F
:10395000B842C9D00020EBE74069F3E70120F7E760
:103960002DE9F047984616460D4604464FF00009EB
:103970004FF0200AC1F3074723E020684069C043A5
:10398000400515D42068016841F400710160216888
:103990006FF480604861C4F8309084F83DA084F8EA
:1039A0003E90216C41F00401216484F83C9021E0B8
:1039B000701C06D0FEF7C6FDA0EB0800B04203D88D
:1039C00016B1012F1FD021E02068012F15D080698A
:1039D00025EA00000004000C18D000BF44F8309F16
:1039E00084F80DA084F80E90216941F02001216136
:1039F00084F80C900120BDE8F087406925EA0000BA
:103A00000004000CEAD12068406901E02068806968
:103A100025EA00000004000CAFD1ECE72DE9F041ED
:103A2000002590460E460446202728E04069C04302
:103A3000C0060CD454F8301B6FF01000486144F8F5
:103A400010596777A577206A2062257714E0FEF782
:103A500079FDA0EB0800B04200D886B92068406923
:103A6000C04340060BD544F8305F6773A5732069E7
:103A700040F02000206125730120BDE8F08120681E
:103A80004169C9434906D1D40020F6E770B516460E
:103A90000D4604461EE02046FFF713FE08B1012044
:103AA00070BD681C16D0FEF74DFD801BA84200D8E3
:103AB00085B920684069C04300060BD5002044F852
:103AC000300F20216173A073216941F02001216131
:103AD0002073E4E720684069C0430006DBD400207F
:103AE00070BD000010B50748FEF70EFB64210548C5
:103AF000FEF76CFA08B1002010BDBDE81040014887
:103B0000FEF7A6B92000002001210148FEF708BDFC
:103B1000000801403EB5002410480094019402942E
:103B20000D498460016004730475012505614FF43B
:103B300060214460C161FEF78FF908B1FEF707F913
:103B40000095CDE9015469460448FEF703F90028C1
:103B500001D0FEF7FCF83EBD00240140200000200B
:103B6000F0B585B000242848009401940294039491
:103B7000816941F010018161816901F010010491B6
:103B8000816941F020018161816901F02001049186
:103B9000816941F004018161816901F004010491AE
:103BA000816941F0080181618069184F00F00800C7
:103BB0004FF400550490002229463846FEF7BDFC1C
:103BC0000095022601250396CDE901546946384641
:103BD000FEF7B6FBCDE9005469460D480296FEF7A4
:103BE000AFFB280300900B48CDE9010569460A4860
:103BF000FEF7A6FB002211462820FEF7BFFF282073
:103C0000FEF7AEFF05B0F0BD00100240001001400D
:103C10000008014000003110000C01400D4810B5B3
:103C20000B4901600C49416000214FF480428160E2
:103C3000C0E9031241618161C1610162FEF788FC44
:103C4000002803D0BDE81040FEF781B810BD000089
:103C50000054004050000020A08601000C4810B520
:103C60000A4901604FF416514160002181600C2225
:103C7000C160C0E904128161C161FFF731FC002815
:103C800003D0BDE81040FEF762B810BD0038014017
:103C9000A40000200C4810B50A4901604FF4E1313E
:103CA0004160002181600C22C160C0E90412816181
:103CB000C161FFF715FC002803D0BDE81040FEF7F6
:103CC00046B810BD00440040EC000020FEE7FEE7CF
:103CD000704770B50546FF20002231240FE0AB5C31
:103CE00058400023060602D584EA400000E0400068
:103CF0005B1CDBB2C0B2082BF4D3521CD2B28A4296
:103D0000EDD370BD1CB52C208DF804000D208DF86E
:103D1000050064200090022301AA88210148FEF7D3
:103D200003FE1CBD50000020FEB505466420009037
:103D3000062301AA88211B48FEF7CEFC80B9022188
:103D400001A8FFF7C6FF9DF80610884208D102219E
:103D50000DF10700FFF7BDFF9DF80910884201D063
:103D60000120FEBDBDF80400BDF8071040BA4CBAF2
:103D700000F0A4FB0C4900F0B5FB0C4E314600F0FE
:103D8000DBFA0B4900F076FA2860204600F096FB3B
:103D9000084900F0A7FB314600F0CEFA6860002029
:103DA000FEBD00005000002000002F4300FF7F47B1
:103DB000000034C20000C8427047FEF779BE30B53B
:103DC00093B028216846FCF73FFB14210AA8FCF7B2
:103DD0003BFB002501200F951095119501041295CC
:103DE0008DE8230004904FF4E010CDE90810022480
:103DF00007946846FFF798F808B172B6FEE70AA97B
:103E00000F2081E831004FF48060CDE90D050221DB
:103E10000AA8FEF7ADFF08B172B6FEE74FF4004006
:103E200011900F940FA8FEF72DFF002801D072B655
:103E3000FEE713B030BD704710B5406A0021C18560
:103E4000C184FFF716FA10BD01680C3151E8002F4C
:103E500022F4907241E80023002BF5D1016814315F
:103E600051E8002F22F0010241E80023002BF5D198
:103E7000016B012909D101680C3151E8002F22F0B2
:103E8000100241E80023002BF5D1202180F84210D8
:103E900000210163704708B590F84210222901D033
:103EA000022008BD82684FF480539A4201D1016913
:103EB00021B1816A9A421BD04AB10AE00268816A44
:103EC0005268C2F308020A80816A891C08E002690C
:103ED00072B10268526802F07F020A70816A491C5E
:103EE0008162C18D491E0904090CC18503D01BE004
:103EF00002685268F1E70168CA6822F02002CA60CD
:103F00000168CA6822F48072CA6001684A6922F0B6
:103F100001024A61202180F8421000214163026BB6
:103F2000012A03D0FFF77AFB002008BD0163016876
:103F30000C3151E8002F22F0100241E80023002B41
:103F4000F5D101680A68D20602D50A68496800916D
:103F5000818DFFF78DF9E7E770B5044600680169C8
:103F6000E26821F44051114301612169A0680843CE
:103F7000616908432168CA6841F20C639A430243AD
:103F8000CA6020684169A26921F44071114341610E
:103F90001E492068884202D1FEF790FF01E0FEF73B
:103FA0007DFF00EBC00101EB00126068642180001E
:103FB000B2FBF0F3B3FBF1F36FF018067343B2FBFF
:103FC000F0F5B2FBF0F605EB8305322303EB0515A4
:103FD000B5FBF1F5B6FBF1F605F0F00505EB0615BE
:103FE000B2FBF0F6B2FBF0F0B0FBF1F06FF01802AC
:103FF000504306EB800003EB0010B0FBF1F02168AA
:1040000000F00F002844886070BD000000380140B7
:104010002DE9F843984617460D460446089E24E0CD
:10402000701C22D0FEF78EFAA0EB0800B0421AD81E
:10403000CEB12068C168490717D5802D15D0402D15
:1040400013D00168C94309070FD4016800254068EF
:1040500000902046FFF7F8FE0820606484F8405086
:104060000120BDE8F8830320FBE72068006835EAFB
:10407000000004D00020B842D2D00020F1E7012097
:10408000F9E700000148FFF7F5B80000A4000020A0
:104090000148FFF7EFB80000EC000020FEE7490000
:1040A00050EAC12018BF04204A0D18BF40F001009B
:1040B00040F2FF72B2EB515F08BF40F002000128EE
:1040C00008BF052070470907090E002804DB00F12E
:1040D000E02080F80014704700F00F0000F1E020AD
:1040E00080F8141D704730380A2801D2012070472B
:1040F0000020704713B54FF0FF3301226946024894
:10410000FFF78DFA00981CBDEC0000201FB5FEF7EC
:10411000D7FCFFF754FEFFF723FDFFF79FFDFFF7E6
:10412000B9FDFFF77BFDFFF7F5FCFFF7EBFDFDF7B2
:1041300007FE6420FEF7B8F8164F4FF400564FF410
:10414000FA6802A8FFF7F0FDA0B113A0FCF75AF837
:10415000FFF7C8FC0446FFF7D7FC0246214612A031
:10416000FCF750F831463846FEF7DFF94046FEF7D7
:104170009BF8E6E7039800F051F804460D460298D4
:1041800000F04CF802460B460EA0CDE90045FCF7C6
:1041900039F8DDE700100140534854333020657290
:1041A000726F722C200000004D5132204144433A7E
:1041B00020256C752C20416C61726D3A2025640DB0
:1041C0000A00000054656D703A20252E32662043A7
:1041D0002C2048756D3A20252E3266202525524820
:1041E0002C20000010B500290AD00878002807D03C
:1041F00005487844FCF7E4FE002801D0002010BDFB
:104200000248784410BD0000760600006E060000EB
:104210000808A0F500114FEA3101704743004FEA4A
:10422000D30C4FEA3C0C43401FBF40070CF16051D8
:1042300013F0FE4F70471CF0006F03D100200CF00C
:10424000004170470CF0004343EA507010B540EA5B
:10425000CC0000F0C8F900BF000000924FEA000156
:10426000FFF7D6BF4FF000414FF00000A1F500214D
:104270007047000090EA010F48BF81F0004100F153
:104280000482421A3CBF801A89184FEAD0524FF07C
:104290007F4C1CEA410FA2EBD15318BF9CEA026F7E
:1042A00000F03B804FF0004C4CEA00204CEA01212A
:1042B00021FA03FC10EB0C0C1ED202F1FF325FEA74
:1042C0001C2040EBC25038BF70471CF07F0F4FEAF4
:1042D000400C18BFBCF17F4F38BF7047C3F12003BB
:1042E000994008BF20F00100BCF17F4F38BF7047F4
:1042F000A0F1C04000F0BDB94FEA3C00000A40EB1D
:10430000C25028BF1CF0FF0F4FEA400CE6D018BF88
:10431000BCF17F4F38BF7047EAE79CEA026F05D0D7
:1043200010EA5C0F08BF00F00040704710B500F0C5
:104330005AF900BF64FBBE3E4FF47F0C1CEAD0125A
:104340001EBF1CEAD11392EA0C0F93EA0C0F00F087
:10435000858090EA010F48BF42F4807240F4000C5F
:1043600041F400002CF07F4120F07F4000B58142F5
:10437000A2EB03020FF2081CACEB504EC0F10000A0
:104380009EF800E04FEA4E0E00FB0EFC38BF4900DD
:104390004FEA2C1C02F5FA020CFB0EF34FEACE1E7C
:1043A0004FEA112C4FEAC1210EEB635E42EB224231
:1043B0000EFB0CFC4FEA1C5300FB03114FEA112CBF
:1043C0004FEA01310EFB0CFC4FEADC4C00FB0C11F8
:1043D000C14228BF09184CEB03335DF804EB10EB26
:1043E000410143EBC250B2F57C0F38BF704729D56D
:1043F00012F0F00F1CBF00F1C04000F00040704709
:10440000008182838485868788898B8C8D8E8F91AD
:104410009293959697999A9C9D9FA0A2A3A5A7A8D1
:10442000AAACAEB0B2B3B5B7B9BCBEC0C2C5C7C9FD
:10443000CCCED1D4D7D9DCDFE2E6E9ECF0F3F7FA61
:10444000FE0000004FEA400C0CF1807CBCF17E4F76
:1044500028BF7047B0F1C04000F00BB990EA010FDF
:104460000CEAD11348BF42F48072624538BF6345FD
:1044700007D213F47F0F16D080EA010000F000404D
:10448000704710B500F0AFF8097EFC3E00F005B8AB
:1044900080EA010000F00040704780EA010000F06F
:1044A000004000F0E6B812F47F0F04BF02487047E6
:1044B00080EA010000F0DDB80000C07FB0FA80F3B0
:1044C00010FA03F2C3F19D030AD0D90501EB1220C3
:1044D000530638BF704700F1010008BF20F001000B
:1044E000704700004FF47F0C1CEAD0121EBF1CEA7C
:1044F000D11392EA0C0F93EA0C0F00F0478090EA78
:10450000010F48BF42F480724FF0004C4CEA00208B
:104510004CEA012102EB0302A0FB0113A2F5000209
:10452000002918BF43F001035B0028BF4FEA3303A3
:1045300042EB22425FEA132C4CEBC2502EBFBCEB85
:10454000436FB2F57C0F70474FEA036CBCF1004F2C
:1045500008BF20F00100B2F57C0F38BF70470BD5C3
:1045600082F0FF0212F5803FC8BF704700F1C040E3
:10457000D8BF00F00040704700F5000C5FEA4C0C1B
:1045800048BF7047B0F1C04000F073B890EA010F27
:104590000CEAD11348BF42F48072624538BF6345CC
:1045A00004D280EA010000F00040704710B500F02E
:1045B0001AF800BF8900013E00F007B800F009B802
:1045C0005FEA410C5FEA1C6C08D080EA010000F051
:1045D00050B85FEA400C5FEA1C6CF6D14FF0004027
:1045E000A0F5800070470EF1020E2EF0030E5EF86B
:1045F000044B244204D44FEA4102B2F17F4F11D858
:104600004FEA4003B3F17F4F0CD80ED14FEAD07C74
:10461000B2F17F4F0CEB4C0C0CF1020C08BF4CEBD1
:10462000D17C04E04FF0080C01E04FEAD17C0CEBA8
:104630004C0324FA03F404F00704B4F1040C06D28A
:104640000EEB840CBDE810404CF0010C6047DFE835
:104650000CF0070802024FF00040A0F5800010BDEA
:104660000846420018BFD2F1807288BF00F00040B7
:1046700010BDFF2141EAD050C005704790EA010FFC
:1046800048BF81F000413FF5FCAD421A04D882F0EA
:104690000042A0EB020011444FEAD0524FF07F4C91
:1046A0001CEA410FA2EBD15318BF9CEA026F4AD01B
:1046B0004FF0004C4CEA00204CEA012121FA03FCA7
:1046C000B0EB0C0C0FD412F0FE0F36D05FEA4C00AA
:1046D0001DD5001240EBC25038BF70471CF03F0F91
:1046E00018BF70470BE0A2F101025FEA1C2040EB0B
:1046F000C25038BF70471CF07F0F18BF7047C3F11E
:104700002003994014BF401E20F00100704780082C
:104710004FEA122308BF7047B0FA80FCA2EB0C02EC
:10472000CCF1280C60FA0CF093EA122F04BF00EBD6
:10473000C25070474FEAC3707047130A5FEADC103B
:1047400008BF7047F6E79CEA026F04D010EA5C0FDE
:1047500008BF0020704710B5FFF745FF40DFF63E69
:1047600081F000407047FBF7C9BF01020203040556
:10477000060708090A0B0C0D0E0F101001020203A8
:104780000405060708090A0B0C0D0E0F1010000097
:1047900000000000000001020304060708090000F1
:1047A000000001020304000002400000000000A01D
:1047B0000000000005400000000000C800000000EC
:1047C0000C4000000000409C000000001940000068
:1047D0000020BCBE0000000034400000BFC91B8E9A
:1047E00000000004B5400000504BCFD06607E2CF78
:1047F000010000006C4100003E8251AADFEEA734A8
:1048000001000000D9420000DCB5A0E23A301F9759
:10481000FFFFFFFFB4450000FD25A0C8E9A3C14F7D
:10482000FFFFFFFFFF3F00000000008000000000CE
:10483000FF3F000000000080000000003A74740098
:104840003A7474003A747400844800080000002030
:104850002000000028010008A448000820000020D3
:1048600070080000440100081C0000004300000024
:10487000F8FFFFFF0C0000000E0000000F0000001A
:104880002E000000010000001000000000000000E9
:1048900000127A000000000000000000000000008C
:0448A0000000000014
:04000005080000ED02
:00000001FF
