:020000040800F2
:100000000808002099010008B7190008D118000855
:10001000B51900083D0B0008851C00080000000011
:10002000000000000000000000000000BB190008F4
:100030003F0B000800000000B9190008BD190008B6
:10004000B3010008B3010008B3010008B3010008C0
:10005000B3010008B3010008B3010008B3010008B0
:10006000B3010008B3010008B3010008B3010008A0
:10007000B3010008B3010008B3010008B301000890
:10008000B3010008B3010008B3010008B301000880
:10009000B3010008B3010008B3010008B301000870
:1000A000B3010008B3010008B3010008B301000860
:1000B000B3010008B3010008B3010008B301000850
:1000C000B3010008B3010008B3010008B301000840
:1000D000B30100086D1C0008791C0008B30100087A
:1000E000B3010008B3010008B301000800F002F8F2
:1000F00000F042F80AA090E8000C82448344AAF180
:100100000107DA4501D100F037F8AFF2090EBAE87D
:100110000F0013F0010F18BFFB1A43F0010318473B
:10012000241C0000441C0000103A24BF78C878C189
:10013000FAD8520724BF30C830C144BF04680C60ED
:10014000704700000023002400250026103A28BF35
:1001500078C1FBD8520728BF30C148BF0B60704739
:100160001FB59DE8030000F0BBFA00F099F81FBD31
:1001700010B500F0FEF810BD00F061F91146FFF770
:10018000EFFF01F09DFD00F079FA03B4FFF7F0FFF7
:1001900003BC00F037FC00000948804709480047CD
:1001A000FEE7FEE7FEE7FEE7FEE7FEE7FEE7FEE727
:1001B000FEE7FEE704480549054A064B7047000084
:1001C0001F1A0008ED00000808020020080800209F
:1001D00008040020080400200FB4044910B503AA45
:1001E000029800F02FF810BC5DF814FB000100200D
:1001F0004FF0000200B5134694469646203922BFC0
:10020000A0E80C50A0E80C50B1F12001BFF4F7AF0A
:10021000090728BFA0E80C5048BF0CC05DF804EBEC
:10022000890028BF40F8042B08BF704748BF20F85A
:10023000022B11F0804F18BF00F8012B7047704758
:1002400070477047074B70B50D467B4400F011F8BE
:100250000446284600F020F810B14FF0FF3070BD82
:10026000204670BD5B1A000001694A1C02610878D3
:10027000704700B58FB0CDE90131002105910549E6
:100280007944CDE903101146684600F024F90FB017
:1002900000BD0000E5FFFFFF007B00F0800070471D
:1002A00010B542485421FFF7A3FF41485421FFF7FE
:1002B0009FFF40485421FFF79BFF3F493B483C4A82
:1002C0003F4B08603D490A603A491960531C036579
:1002D000481C1065012008653B48344A39A1784420
:1002E00000F030F920B9384878440A3800F0CFF9E6
:1002F00037482F4A35A1784400F024F920B9344812
:1003000078440A3800F0C3F932482A4A2FA17844C9
:1003100000F018F920B92F4878440A3800F0B7F9EE
:1003200040232248DC000021224600F0E8F820B1FA
:1003300025487844543800F0AAF91D482246402345
:10034000002100F0DCF820B121487844543800F056
:100350009EF9184822461023002100F0D0F800280A
:1003600006D01C487844BDE81040563800F08FB9DC
:1003700010BD104870B5006D20F001040B4800F06E
:1003800057F90B4800F054F90A4800F051F909E018
:10039000206D20F00105204600F04AF9204600F0CB
:1003A00073F82C46002CF3D170BD0000AC00002087
:1003B0000001002054010020100000201400002043
:1003C0001800002072000000541A0000770000009E
:1003D000401A00002C1A00000EB5CDE9000100F013
:1003E000F1FA029069460120ABBE0EBD08B5694620
:1003F00000900220ABBE08BD1FB58DE8070069461E
:100400000520ABBE04B010BD1FB58DE80F006946D6
:100410000620ABBEF6E708B5694600900920ABBEE2
:1004200008BD1CB5CDE9000169460A20ABBE1CBD64
:10043000704708B5694600900C20ABBE08BD7546F4
:1004400000F02CF9AE4605006946534620F007003F
:10045000854618B020B5FFF7ADFEBDE820404FF04F
:1004600000064FF000074FF000084FF0000B21F09E
:100470000701AC46ACE8C009ACE8C009ACE8C0096B
:10048000ACE8C0098D46704770B50446051F00F002
:100490000BF90068002C14BF446870BD002C18BF15
:1004A000AC423CBF20466468F8D301680A18AA42EF
:1004B00018BF456003D12A680546114401602868C9
:1004C0004119A1421CBF6C6070BD61686960216800
:1004D0000844286070BD2DE9F04106460024D6E9A5
:1004E0000170F5688046304603E04146B847641C19
:1004F0003046A8470028F8D12046BDE8F08170B505
:10050000C468A50713D0650211D4B2F5807F09D065
:10051000B2F5007F06D0B2F5806F08D1012300F15B
:10052000240106E05D1E6FF07F46B54201D3012035
:1005300070BD0161C361416024F470611143C16009
:10054000002070BD2DE9F0410C46074616461046C6
:1005500000F06EF82078611C61280AD0722802D061
:1005600077283CD102E00125002405E0022504247F
:1005700002E0082448F2020511F8010B2B2806D0EE
:10058000622809D011F8010C74280AD00BE045F05C
:10059000030544F00204EFE745F0040544F00104CC
:1005A000EAE744F0100438462146FFF715FF411CE6
:1005B00015D00021316171604FF40071F560F16177
:1005C0007061200704D530460222002100F0E6F8D1
:1005D000306D40F0010030653046BDE8F08100200C
:1005E000FBE72DE9F0410D460646104C206DC10792
:1005F00004D0410804D020F00104F7E722460EE0C1
:10060000542000F09CF807000ED0206D47F0010147
:100610000843542120653846FFF7EAFD3A4629464B
:100620003046BDE8F0418DE70020D6E7AC00002061
:100630002DE9F04704464FF000094FF0FF37C56839
:10064000D4E90486A80707D0204600F057F93046C1
:10065000FFF7CCFE002802DA3846BDE8F08728050F
:1006600002D54046FFF710FF4C212046FFF7C0FDA2
:10067000206D20F0010020654846EEE710B50446E5
:10068000AFF300802046BDE81040FFF77EBD10B5F7
:1006900000F07EF9BDE8104000F074B900487047E2
:1006A000A80100207047000000487047B0010020FA
:1006B000704770477047704738B504460A460020B7
:1006C0006946AFF30080002808BF38BD0246009994
:1006D000204600F0A4F9012038BD012000F0F3B954
:1006E000F8B5AFF30080054600200C46102000BF8F
:1006F0000646A819A0420DD9324669460020AFF33C
:100700000080070008BF00F0DEF90098A04218BF83
:100710000546C419FFF7C8FF05600746F01D20F025
:1007200007004619284600F073F9B44208BFF8BD27
:10073000A21B31463868BDE8F84000F070B970B5CA
:100740000646FFF7B1FF056806F10B0020F007042D
:10075000B4429CBF002070BD2B466A68BAB11068D5
:10076000A04210D304F1080188423CBF5068586091
:1007700007D35168101941601168091B0160586066
:100780001460101D70BD13465268002AE7D121463F
:100790002846FFF791FF0028DED170BD2DE9F0411A
:1007A000044616460D464769007B80072ED0384622
:1007B000FFF731FE50BB3EB3012E02D0022E25D1F1
:1007C00004E0204600F045F905441DE03846FFF7F7
:1007D00030FEE168002841F01001E16005DA2046B2
:1007E00000F058F80120BDE8F081C9030BD562681C
:1007F000E16A914200D81146A26911442269891A1E
:10080000814200DD08460544002D01DA0220EAE7B6
:10081000E16A6068E268814206D29103E06203D532
:1008200022F4003141F01002A6690027AE4213DC29
:10083000E16A814201D90B4600E0034603EB060C56
:100840002369ACEB030CAC4506DD814201D98C4633
:1008500000E084469C4505D1A760276042F0200057
:10086000A5620DE0AD1BE669AE1B8142A66000D912
:100870000846C01A281A20605819606022F020002B
:1008800003490840E060002084F84870ABE70000AE
:10089000BFCFD7FFC16821F4001141F08001C160D2
:1008A00000218160016070472DE9F04781461446C0
:1008B0000E464FF0FF383248D5685769054209D0D7
:1008C0003846A169FFF7ADFD002811DB2C48C04375
:1008D0000540E5602B46324649463846FFF78CFD19
:1008E000A16920F00042B21A11440028A16103D08E
:1008F0002046FFF7CFFF4046BDE8F08770B50446BD
:100900000569C06A6168884200D80846E16821F438
:100910002011E160C90312D5A84208D02246411B2C
:100920002846FFF7C1FF10B14FF0FF3070BD002027
:10093000E562C4E90150E06820F48030E060002006
:1009400070BD10B50446C06820F02000E060A16AC8
:10095000A06988420DD02046FFF7D0FFE06820F460
:10096000405040F01000E060A06AA0612069E062A1
:10097000606044F24001E0688843E06010BD000020
:1009800010000200002801D000F03CB870470000C1
:1009900010B5014602A000F07DF8012010BD000056
:1009A00053494752545245443A205265646972652E
:1009B00063743A2063616E2774206F70656E3A200D
:1009C0000000000010B5431C02E010F8011B71B1DB
:1009D0008107FAD14FF0013202C88C1A8C4314EA15
:1009E000C211F9D0C01A0A0603D0C01E10BDC01A29
:1009F00010BD0A0401D0801E10BD0902FCD0401EAB
:100A000010BD000001491820ABBEFEE72600020021
:100A100000210160C0E901107047102070470346B3
:100A200040688C46002818BF88423CBF0346406897
:100A3000F8D318681844884207D00CF1030020F05E
:100A40000700001D411A521A0146081D0A60FFF7EF
:100A50001BBD10B50146C268900703D0900607D5AC
:100A6000886A0AE000F03EF801210160881E10BD8E
:100A70008B69486818440B69C01A91F848301BB15B
:100A800091F84910401A10BD1103FCD50028FADD79
:100A9000401E10BD70B505460C460A2000E06D1CD6
:100AA00000F018F835B128780028F8D102E0641C6D
:100AB00000F010F814B120780028F8D1BDE870409B
:100AC0000A2000F007B810B500F010F8BDE810409B
:100AD000FFF758BF08B569468DF800000320ABBE8C
:100AE00008BD000000487047A801002010B501288B
:100AF00005D0002103A0FFF7CDFF012010BD09A103
:100B0000F8E7000053494752544D454D3A204F7580
:100B100074206F662068656170206D656D6F7279F5
:100B2000000000003A2048656170206D656D6F72AD
:100B30007920636F7272757074656400FEE77047A8
:100B400072B6FEE710B590F821100022022905D0F8
:100B50000421816380F82020012010BD01680B680A
:100B600023F00E030B6001680B6823F001030B6098
:100B700090F84030C46B012101FA03F3636080F800
:100B8000211080F82020104610BD000010B590F80C
:100B900021100024022903D00421816301243DE0B7
:100BA00001680A6822F00E020A6001680A6822F0F1
:100BB00001020A601A4A0168914201D1012121E033
:100BC000174A1432914201D110211BE0144A2832F5
:100BD000914201D1891515E0114A3C32914201D16F
:100BE00089140FE00E4A5032914202D14FF4803105
:100BF00008E00B4A6432914202D14FF4801101E0C7
:100C00004FF08071064A083A5160012180F82110A6
:100C1000002180F82010416B01B18847204610BDAB
:100C20000800024070B5044600F00CF90546601C4F
:100C300002D004480078044400F004F9401BA042AC
:100C4000FAD370BD000000202DE9F84FDFF8B8910D
:100C50000024A9F1040B23460F2709F1040AABF184
:100C6000040EC9E00125A5402A40AA427DD1674E65
:100C7000D1F804C0ACEB0608B44532D014DCBCF1AA
:100C8000030F3AD009DCBCF1000F2AD0BCF1010FF0
:100C90001CD0BCF1020F31D11DE0BCF1110F17D0F7
:100CA000BCF1120F2AD119E0B8F5881F19D006DC63
:100CB000B8F5803F15D0B8F5801F1FD111E0B8F509
:100CC000001F0ED0B8F5041F18D10AE0CB6815E05C
:100CD000CB681B1D12E0CB6808330FE0CB680C33E8
:100CE0000CE08B682BB1012B4FF0080303D045615A
:100CF00004E0042302E0056100E00023FF2A01D89C
:100D0000064601E000F104064FEA840501D9A5F189
:100D10002005D6F8008007FA05FC28EA0C0803FA3B
:100D200005F548EA0508C6F800804D68ED0062D573
:100D3000374DAE6946F00106AE61AD6924F0030699
:100D400005F001050095334D06EB050CDCF8085065
:100D5000A607360F07FA06F825EA0805DFF8B88077
:100D6000404503D14FF0000817E044E0DFF8AC80C5
:100D7000404502D14FF001080FE0DFF8A480404564
:100D800002D14FF0020808E0DFF89880404502D118
:100D90004FF0030801E04FF0040808FA06F848EAAB
:100DA0000508CCF808804D68D9F80060ED024D4682
:100DB00001D5164300E096432E604D68DAF80060D6
:100DC000AD02554601D5164300E096432E604D68AE
:100DD000DBF80060AD035D4601D5164300E09643A5
:100DE0002E604D68DEF80060ED03754601D51643B0
:100DF00000E096432E60641C0D682A46E5407FF4AF
:100E000031AFBDE8F88F0000080401400000111068
:100E1000001002400000014000080140000C0140A9
:100E20000010014000140140C26821EA02030A4098
:100E300043EA0241016170470AB101617047090448
:100E4000FBE70000014880687047000000000020B8
:100E500002488168027811448160704700000020D8
:100E6000074810B5016841F010010160032000F04F
:100E700075F80F2000F006F800F024F8002010BDEF
:100E80000020024070B50D4D04464FF47A71287869
:100E9000B1FBF0F00A490968B1FBF0F000F0DCFAB0
:100EA00048B9102C07D200222146501E00F036F817
:100EB00000206C6070BD012070BD000000000020AB
:100EC0000C0000200C4808B5816941F001018161E6
:100ED000816901F001010091C16941F08051C16156
:100EE000C06900F0805000900448416821F0E06142
:100EF00041F00071416008BD001002400000014057
:100F0000002809DB00F01F02012191404009800008
:100F100000F1E020C0F8001170470000F0B40E4B63
:100F20001B680C46C3F30223C3F10705042D00D947
:100F30000425191D072901D2002300E0DB1E01262C
:100F400006FA05F1491E214099409E40761E164042
:100F50003143F0BC00F097BE0CED00E0064900F014
:100F6000070208684FF6FF03184040EA0220034AD0
:100F700010430860704700000CED00E00000FA0527
:100F80002DE9F0470F46050061D0434E306800F070
:100F90000700B84209D2306820F0070038433060BB
:100FA000306800F00700B84251D128683B4C8107F7
:100FB00012D5400703D5606840F4E060606028788F
:100FC000000703D5606840F4605060606068A968FD
:100FD00020F0F000084360602878C00728D06868D7
:100FE000012810D02168022810D0890700292EDAA4
:100FF000616821F0030101436160FFF723FF804630
:1010000041F288390DE021688903EFE78901EDE7B6
:10101000FFF718FFA0EB0801494502D90320BDE8FE
:10102000F0876068696800F00C00B0EB810FEFD1C9
:10103000306800F00700B8420BD9306820F0070094
:1010400038433060306800F00700B84201D001201A
:10105000E5E72878400705D56068E96820F4E06096
:10106000084360602878000706D56068296920F485
:10107000605040EAC100606000F038F86168084ADA
:10108000C1F30311515CC840064908600648006876
:10109000FFF7F8FE0020C2E70020024000100240E7
:1010A0001E1D00080C000020040000200448054913
:1010B00000684968044AC1F30221515CC840704786
:1010C0000C000020001002402E1D000804480549B5
:1010D00000684968044AC1F3C221515CC8407047A6
:1010E0000C000020001002402E1D00080E4A51681E
:1010F0000E4801F00C03042B11D0082B0FD10C4823
:10110000C1F38343C903C05C0AD55168084AC1F3DF
:101110004041921E515C054A5043B0FBF1F07047CC
:1011200004494843704700000010024000127A0052
:101130000E1D000800093D002DE9F84F040070D095
:101140002078C04DC00749D06868C0F381000128ED
:1011500007D06868C0F38100022809D16868C0031D
:1011600006D52868800339D560680028E7D035E0C7
:101170006068B0F5803F0BD010B1B0F5A02F11D052
:10118000286820F480302860286820F4802002E05D
:10119000286840F480302860606890B1FFF752FE04
:1011A00006460AE0286840F480202860F0E700BF87
:1011B000FFF748FE801B642873D828688003F7D5A2
:1011C0000CE0FFF73FFE064605E000BFFFF73AFEE2
:1011D000801B6428F0D828688003F7D420789A4EC2
:1011E00080074FF001094FF0000839D5686810F00A
:1011F0000C0F07D06868C0F38100022809D1686825
:10120000C00306D42868800714D52069012808D1B6
:1012100010E02069B0B1C6F80090FFF713FE074652
:1012200005E00AE1FFF70EFEC01B0228C4D82868BB
:101230008007F7D52868616920F0F80040EAC1000E
:1012400028600DE0C6F80080FFF7FCFD074604E0CB
:10125000FFF7F8FDC01B022823D828688007F7D4C1
:10126000207800072CD57948A169D9B1C0F8009041
:10127000FFF7E8FD074604E0FFF7E4FDC01B022886
:101280000FD8686A8007F7D571484FF4FA510068A3
:10129000B0FBF1F0009000BF0098411E0091FAD21F
:1012A0000EE080E0C0F80080FFF7CCFD074604E0C8
:1012B000FFF7C8FDC01B022875D8686A8007F7D4FD
:1012C0002078400760D5E8690027C00008D4E869A5
:1012D00040F08050E861E869012700F080500090FC
:1012E0005C480168C90513D40168834641F48071E4
:1012F0000160FFF7A7FD824606E000BFFFF7A2FDF1
:10130000A0EB0A0064284ED8DBF80000C005F5D534
:10131000E06801280AD008B1052813D0286A20F017
:1013200001002862286A20F0040002E0286A40F0E8
:1013300001002862E06841F2883B98B1FFF782FD26
:1013400082460BE0286A40F004002862EEE700BF06
:10135000FFF778FDA0EB0A0159455AD8286A8007A3
:10136000F6D50CE0FFF76EFD824605E0FFF76AFD5B
:10137000A0EB0A0159454CD8286A8007F6D41FB162
:10138000E86920F08050E861E06988B36968C1F3DA
:101390008101022944D00228C6F8608004D0FFF7FA
:1013A00051FD044638E034E0FFF74CFD074604E009
:1013B000FFF748FDC01B02282BD828688001F7D40E
:1013C000206AB0F5803F05D16868A16820F400303C
:1013D00008436860D4E908010843696821F474117E
:1013E00008436860C6F86090FFF72CFD044606E0ED
:1013F00025E000BFFFF726FD001B022809D828685A
:101400008001F7D51BE000BFFFF71CFD001B022881
:1014100002D90320BDE8F88F28688001F4D40EE0DB
:101420000128F7D06868226A00F48031914204D123
:10143000616A00F47010884201D00120EAE70020C0
:10144000E8E70000001002400000424280044242EF
:101450000C0000200070004010B5401EB0F1807FED
:1014600001D3012010BD4FF0E02460610F2160170F
:1014700000F009FC0020A06107202061002010BDC1
:1014800070477047F8B5016804460868CA684B6938
:1014900010F00F0F4FF0000559D003F0010602F4D1
:1014A0009077374365D0C10705D0D10503D5616C6E
:1014B00041F001016164410705D5D90703D0616C92
:1014C00041F002016164810705D5D90703D0616C41
:1014D00041F004016164010707D502F020013143A6
:1014E00003D0616C41F008016164616C00293AD05D
:1014F000800604D5900602D5204600F0C0FA206888
:101500004069616CC0F38010090700D460B32046C5
:1015100000F08EFA20684069400621D5206814301A
:1015200050E8001F21F0400140E80012002AF5D1E8
:10153000E06BA8B16D494163E06BFFF727FB002822
:1015400011D0E06B416B01B0BDE8F0400847830665
:101550000FD593060DD52046BDE8F84000F08FBAB0
:101560002046FFF78EFFF8BD2046FFF78AFF65642F
:10157000F8BD266B2023012E7CD1C6067AD5D6066F
:1015800078D508684868009048694FF00206400620
:1015900040D5E16B086840680004000CE8D0A28DDB
:1015A0008242E5D9E085886920282DD020680C305A
:1015B00050E8001F21F4807140E80012002AF5D1A4
:1015C0002068143050E8001F21F0010140E80012AB
:1015D000002AF5D12068143050E8001F21F04001A6
:1015E00040E80012002AF5D184F8423025632068D3
:1015F0000C3050E8001F21F0100140E80012002AD2
:10160000F5D1E06BFFF79EFA6663A08DE18D401A7D
:1016100081B22AE0A08DE18D401A81B2E08D0028D0
:10162000A6D00029A4D022680C3252E8000F20F482
:10163000907042E80007002FF5D12068143050E880
:10164000002F22F0010240E80027002FF5D184F896
:101650004230256320680C3050E8002F22F0100241
:1016600040E80023002BF5D166632046FFF708FF12
:10167000F8BDFFE705062BD5150629D594F84100DE
:101680002128F5D1A068B0F5805F01D12069B0B103
:10169000206A411C2162216800784860E08C401E6D
:1016A0000004000CE084E3D12068C16821F08001CF
:1016B000C1602068C16841F04001C160D8E7206A7C
:1016C0000088C0F308004860206A801C2062E5E7BB
:1016D0004006CDD55006CBD5CA68204622F0400240
:1016E000CA6084F8413000F0F2F8C1E7211A00081E
:1016F00070B5040004D094F84100002510B106E054
:10170000012070BD84F84050204600F023F82420CA
:1017100084F841002068C16821F40051C16020466E
:1017200000F00EFA2068016921F4904101612068FF
:10173000416921F02A0141612068C16841F40051EA
:10174000C1606564202084F8410084F8420065632C
:10175000002070BD70B586B00024009401940294FE
:1017600003942E4E03682E49022003222D4DB342CE
:1017700026D18B6943F480438B618B6903F48043EA
:1017800004938B6943F004038B618969039201F030
:10179000040104910102CDE9001069462846FFF7D3
:1017A00053FA2815CDE90004694628460294FFF74C
:1017B0004BFA002211462520FFF7B0FB252028E038
:1017C000194EB34227D1CB6943F40033CB61CB69C7
:1017D00003F4003304938B6943F004038B6189693C
:1017E000039201F0040104910421CDE9001069463F
:1017F0002846FFF729FA0820CDE900046946284663
:101800000294FFF721FA002211462620FFF786FBFB
:101810002620FFF775FB06B070BD000000380140C0
:1018200000100240000801400044004070472DE9CC
:10183000F843044690F84100984616460D46202885
:1018400002D00220BDE8F88385B17EB1002060643B
:10185000212084F84100FFF7F5FAA6848146E6844A
:10186000A0682027B0F5805F02D003E00120E9E7FF
:10187000206910B12E4600250EE000260CE08021E4
:10188000204600F0B9F9A8B9C6B116F8010B2168D5
:101890004860E08C401EE084E08C4B464FF0000234
:1018A000CDF800800028EAD14FF04001204600F03A
:1018B000A3F940B184F841700320C3E735F8020B67
:1018C000C0F30800E3E784F841700020BAE77047EE
:1018D000FEE7000070B586B000241848009401941B
:1018E00002940394816941F010018161816901F0E2
:1018F00010010491816941F020018161816901F049
:1019000020010491816941F00401816180690C4EDC
:1019100000F004004FF400550490002229463046A0
:10192000FFF78AFA01200095CDE901040220039017
:1019300069463046FFF788F906B070BD00100240D6
:10194000001001400C4810B50A4901604FF41651CF
:101950004160002181600C22C160C0E904128161F4
:10196000C161FFF7C5FE002803D0BDE81040FFF7B6
:10197000E7B810BD003801401C0000200C4810B52D
:101980000A4901604FF4E1314160002181600C227D
:10199000C160C0E904128161C161FFF7A9FE00289E
:1019A00003D0BDE81040FFF7CBB810BD00440040A5
:1019B00064000020FEE7FEE770477047FFF748BA73
:1019C00030B58FB028216846FEF712FC14210AA812
:1019D000FEF70EFC01210804CDE90010002402945A
:1019E00002250491CDE907504FF4E01009906846B4
:1019F000FFF7A2FB08B172B6FEE70F20CDE90A059A
:101A00004FF48060CDE90C4002210AA80E94FFF744
:101A1000B7FA002801D072B6FEE70FB030BD7047AC
:101A200010B5406A0021C185C184FFF72AFD10BDB1
:101A300001680C3151E8002F22F4907241E8002334
:101A4000002BF5D10168143151E8002F22F001027A
:101A500041E80023002BF5D1016B012909D1016870
:101A60000C3151E8002F22F0100241E80023002B36
:101A7000F5D1202180F8421000210163704708B59C
:101A800090F84210222901D0022008BD82684FF44C
:101A900080539A4201D1016921B1816A9A421BD0D7
:101AA0004AB10AE00268816A5268C2F308020A80F9
:101AB000816A891C08E0026972B10268526802F00A
:101AC0007F020A70816A491C8162C18D491E090426
:101AD000090CC18503D01BE002685268F1E7016878
:101AE000CA6822F02002CA600168CA6822F48072C3
:101AF000CA6001684A6922F001024A61202180F827
:101B0000421000214163026B012A03D0FFF78EFED1
:101B1000002008BD016301680C3151E8002F22F05C
:101B2000100241E80023002BF5D101680A68D206B3
:101B300002D50A6849680091818DFFF7A1FCE7E7AB
:101B400070B5044600680169E26821F44051114310
:101B500001612169A0680843616908432168CA6876
:101B600041F20C639A430243CA6020684169A2694A
:101B700021F44071114341611E492068884202D11D
:101B8000FFF7A4FA01E0FFF791FA00EBC00101EBC7
:101B90000012606864218000B2FBF0F3B3FBF1F344
:101BA0006FF018067343B2FBF0F5B2FBF0F605EBED
:101BB0008305322303EB0515B5FBF1F5B6FBF1F612
:101BC00005F0F00505EB0615B2FBF0F6B2FBF0F000
:101BD000B0FBF1F06FF01802504306EB800003EB0E
:101BE0000010B0FBF1F0216800F00F00284488607D
:101BF00070BD0000003801402DE9F84398461746B3
:101C00000D460446089E24E0701C22D0FFF71AF906
:101C1000A0EB0800B0421AD8CEB12068C1684907CD
:101C200017D5802D15D0402D13D00168C943090761
:101C30000FD401680025406800902046FFF7F8FEA9
:101C40000820606484F840500120BDE8F883032038
:101C5000FBE72068006835EA000004D00020B842A5
:101C6000D2D00020F1E70120F9E700000148FFF79A
:101C700009BC00001C0000200148FFF703BC000065
:101C800064000020FEE70907090E002804DB00F1CC
:101C9000E02080F80014704700F00F0000F1E02011
:101CA00080F8141D7047000013B54FF0FF33012278
:101CB00069460248FFF7BBFD00981CBD6400002088
:101CC000FFF7CEF8FFF77CFEFFF704FEFFF73AFEC2
:101CD000FFF754FE074D4FF400544FF4FA762146B7
:101CE0002846FFF7A1F804A0FEF776FA3046FEF783
:101CF00099FFF4E7001001404E6F64652072756E25
:101D00006E696E672E2E2E0D0A000000010202037E
:101D10000405060708090A0B0C0D0E0F1010000031
:101D2000000000000000010203040607080900008B
:101D30000000010203043A7474003A7474003A74A7
:101D400074000000641D0008000000201C0000005A
:101D500028010008801D00081C000020EC0700007E
:101D60004401000801000000100000000000000015
:101D700000127A00000000000000000000000000D7
:04000005080000ED02
:00000001FF
